:020000040000FA
:10000000008000102D0A0000350A0000370A0000A9
:10001000390A00003B0A00003D0A00000000000011
:10002000000000000000000000000000A509000022
:10003000410A000000000000050A0000150A000047
:10004000470A0000470A0000470A0000470A00006C
:10005000470A0000470A0000470A0000470A00005C
:10006000470A0000470A0000470A0000470A00004C
:10007000470A0000470A0000470A0000470A00003C
:10008000470A0000470A0000470A0000470A00002C
:10009000470A0000470A0000470A0000470A00001C
:1000A000470A0000470A0000470A0000470A00000C
:1000B000470A0000470A0000470A0000470A0000FC
:1000C000470A0000000000000000000000000000DF
:1000D0000000000000000000000000000000000020
:1000E0000000000000000000000000000000000010
:1000F0000000000000000000000000000000000000
:1001000000000000000000000000000000000000EF
:1002F000000000000000000000000000FFFFFFFF02
:1003000000F002F807F08CFB0AA090E8000C824491
:100310008344AAF10107DA4501D107F081FBAFF26E
:10032000090EBAE80F0013F0010F18BFFB1A43F0D3
:1003300001031847E8D0000008D100000A4410F873
:10034000014B14F00F0508BF10F8015B240908BF2A
:1003500010F8014B6D1E05D010F8013B6D1E01F821
:10036000013BF9D1641E03D0641E01F8015BFBD18F
:100370009142E4D3704700000023002400250026AA
:10038000103A28BF78C1FBD8520728BF30C148BFF8
:100390000B6070476E2901F01283702900F0BD8553
:1003A00066290CF0B28065290CF0AF8067290CF04B
:1003B000AC8061290CF0AB8003681B0A28BF41F0B8
:1003C0008001692900F02E85642900F02B857529AC
:1003D00000F028856F2901F00E86782900F08985C4
:1003E000E92901F0A985E42901F0A685F52901F0A4
:1003F000A385EF2901F00B86F82900F088850368B2
:10040000DB0928BF41F08001632901F02A857329A7
:1004100001F02F85E32902F02386F32902F02886D4
:10042000002070471FB59DE8030001F025FA01F098
:1004300006FA0400002000210BF010FD401C606053
:10044000002000210BF020FDE06002F0C5FA01F071
:10045000C9F91FBD0246D2E84F0FC2E8431F03B1DE
:10046000F9E77047024652E8000F40EA010042E80F
:10047000000303B1F7E7704710B5024652E8000FDA
:1004800020EA010442E8004303B1F7E710BD10B5CC
:10049000024652E8000F00EA01048C4203D0BFF389
:1004A0002F8F002010BD20EA010442E8004303B171
:1004B000EFE710BD10B5024652E8000F084203D125
:1004C000BFF32F8F002010BD20EA010442E8004353
:1004D00003B1F1E710BD024652E8000F411C42E8AB
:1004E000001303B1F8E7704710B5024652E8000F59
:1004F000814202D8BFF32F8F10BD441C42E8004355
:1005000003B1F3E710BD10B50246D2E85F0F814298
:1005100002D8BFF32F8F10BD441CC2E8534F03B164
:10052000F3E710BD10B50246D2E85F0F441CA142AC
:1005300000D80024C2E8534F03B1F5E710BD0246CE
:1005400052E8000F10B9BFF32F8F7047411E42E8E9
:10055000001303B1F4E770470246D2E85F0F10B909
:10056000BFF32F8F7047411EC2E8531F03B1F4E75A
:100570007047024652E8000F10B9BFF32F8F704743
:10058000016842E8001303B1F4E7704702680A60AB
:10059000BFF35F8F50E8002F0B689342F6D140E81D
:1005A000001303B1F2E770470246D2E84F0FC2E8EA
:1005B000431F03B1F9E77047024652E8000F40EAD3
:1005C000010042E8000303B1F7E7704710B50246A7
:1005D00052E8000F20EA010442E8004303B1F7E7C4
:1005E00010BD10B5024652E8000F00EA01048C422B
:1005F00003D0BFF32F8F002010BD20EA010442E892
:10060000004303B1EFE710BD10B5024652E8000FFA
:10061000084203D1BFF32F8F002010BD20EA010450
:1006200042E8004303B1F1E710BD024652E8000F73
:10063000411C42E8001303B1F8E7704710B50246C9
:1006400052E8000F814202D8BFF32F8F10BD441C27
:1006500042E8004303B1F3E710BD10B50246D2E80B
:100660005F0F814202D8BFF32F8F10BD441CC2E838
:10067000534F03B1F3E710BD10B50246D2E85F0F48
:10068000441CA14200D80024C2E8534F03B1F5E74F
:1006900010BD024652E8000F10B9BFF32F8F70470C
:1006A000411E42E8001303B1F4E770470246D2E866
:1006B0005F0F10B9BFF32F8F7047411EC2E8531F61
:1006C00003B1F4E77047024652E8000F10B9BFF3D8
:1006D0002F8F7047016842E8001303B1F4E77047B9
:1006E00002680A60BFF35F8F50E8002F0B689342E7
:1006F000F6D140E8001303B1F2E770470246D2E8B2
:100700004F0FC2E8431F03B1F9E77047024652E8B2
:10071000000F40EA010042E8000303B1F7E7704729
:1007200010B5024652E8000F20EA010442E80043F7
:1007300003B1F7E710BD10B5024652E8000F00EA1A
:1007400001048C4203D0BFF32F8F002010BD20EA9C
:10075000010442E8004303B1EFE710BD10B50246C3
:1007600052E8000F084203D1BFF32F8F002010BDC5
:1007700020EA010442E8004303B1F1E710BD02465C
:1007800052E8000F411C42E8001303B1F8E770473C
:1007900010B5024652E8000F814202D8BFF32F8FF6
:1007A00010BD441C42E8004303B1F3E710BD10B58F
:1007B0000246D2E85F0F814202D8BFF32F8F10BDEF
:1007C000441CC2E8534F03B1F3E710BD10B5024615
:1007D000D2E85F0F441CA14200D80024C2E8534F66
:1007E00003B1F5E710BD024652E8000F10B9BFF3A0
:1007F0002F8F7047411E42E8001303B1F4E77047A2
:100800000246D2E85F0F10B9BFF32F8F7047411E29
:10081000C2E8531F03B1F4E77047024652E8000FE5
:1008200010B9BFF32F8F7047016842E8001303B17E
:10083000F4E7704702680A60BFF35F8F50E8002F4B
:100840000B689342F6D140E8001303B1F2E770471A
:100850000246D2E84F0FC2E8431F03B1F9E77047E1
:10086000024652E8000F40EA010042E8000303B1EB
:10087000F7E7704710B5024652E8000F20EA01047E
:1008800042E8004303B1F7E710BD10B5024652E855
:10089000000F00EA01048C4203D0BFF32F8F002029
:1008A00010BD20EA010442E8004303B1EFE710BDA8
:1008B00010B5024652E8000F084203D1BFF32F8F54
:1008C000002010BD20EA010442E8004303B1F1E733
:1008D00010BD024652E8000F411C42E8001303B16C
:1008E000F8E7704710B5024652E8000F814202D87F
:1008F000BFF32F8F10BD441C42E8004303B1F3E760
:1009000010BD10B50246D2E85F0F814202D8BFF396
:100910002F8F10BD441CC2E8534F03B1F3E710BD45
:1009200010B50246D2E85F0F441CA14200D8002453
:10093000C2E8534F03B1F5E710BD024652E8000F7D
:1009400010B9BFF32F8F7047411E42E8001303B167
:10095000F4E770470246D2E85F0F10B9BFF32F8F5C
:100960007047411EC2E8531F03B1F4E770470246C7
:1009700052E8000F10B9BFF32F8F7047016842E8AB
:10098000001303B1F4E7704702680A60BFF35F8F9A
:1009900050E8002F0B689342F6D140E8001303B1F2
:1009A000F2E77047EFF30980816911F8021CD9B9A9
:1009B00001B590E80F10E047BDE800508CE8030057
:1009C000184B93E80600914208BF704719B12CE913
:1009D000F00FC1F838C01A60906BB0E8F00F80F3E8
:1009E00009886FF0020E704710B50F4A13689942DC
:1009F00006D852F821400FC8A047EFF309842060C1
:100A000010BD000010B508F083FDBDE81040EFF305
:100A1000098CD5E710B509F01BF8BDE81040EFF3DD
:100A2000098CCDE7280A001014C80000064880474A
:100A300006480047FEE7FEE7FEE7FEE7FEE7FEE7C3
:100A4000FEE7FEE7FEE7FEE7914A00000103000033
:100A500010B500F0F4FE001D10BD00BF01B4000091
:100A600007F02AB80B3020F0070070472DE9F0415D
:100A700017460E460446FFF7F5FFA042054633D958
:100A8000002F1CBF06F10C0007F0A8F83046746870
:100A9000F4B12168A94217D305F1080291423CBF85
:100AA0006168416007D3626861194A602268521B1D
:100AB0000A6041602560002F1CBF06F10C0007F0A2
:100AC00011F9201DBDE8F08120466468002CE0D1BA
:100AD0002946304600F0BCFE0028D7D1002F1CBFAD
:100AE00006F10C0007F0FEF80020BDE8F08110B51B
:100AF000044600F09FFE01682046BDE81040012238
:100B0000B4E770B516460D46041F002808BF70BD37
:100B1000002E1CBF05F10C0007F060F82B4658684A
:100B2000002818BFA04238BF0346F8D31968CA1876
:100B3000A24218BF5C6003D122681C4611441960B0
:100B400021680A19824218BF606004D1426862605D
:100B5000006808442060002E1CBF05F10C0007F05F
:100B6000C1F870BD10B5044600F064FE016820466F
:100B7000BDE810400122C4E753EA020C00F069808E
:100B80002DE9F04B4FF00006002B1FBFB3FA83F5A1
:100B900003FA05F424FA05F65E4012BF1643B2FAD2
:100BA00082F502FA05F4C5F120051EBF22FA05FC04
:100BB00044EA0C04203556EA044C4FEA144418BFAA
:100BC000641C4FF000084FF00009904271EB030CD9
:100BD00039D3002919BFB1FA81F701FA07F6B0FA43
:100BE00080F700FA07F6C7F120071EBF20FA07FCBE
:100BF00046EA0C062037B6FBF4FCA7EB0507103FCE
:100C000007F01F0BCBF120060CFA0BFB2CFA06F6B3
:100C100044BFB3460026202FA4BF5E464FF0000B12
:100C20005BEA060C08BF4FF0010B19EB0B09ABFB9D
:100C3000027C48EB0608C01B06FB02CC0BFB03CC76
:100C400071EB0C01C1E70B46024641464846BDE840
:100C5000F08B13B54FF000004FF00001AFF30080B0
:100C6000BDE81C407047B2F120030AD5C2F1200351
:100C700001FA02F120FA03F300FA02F041EA03015B
:100C8000704700FA03F14FF000007047B2F1200303
:100C90000AD5C2F1200320FA02F001FA03F321FA87
:100CA00002F140EA0300704721FA03F04FF000011F
:100CB000704700007CB51D4616460C00009001D020
:100CC0002044401E074B7B442A466946019030462B
:100CD00001F09DF805461CB10020694601F0AAF814
:100CE00028467CBD751100001CB50C46064B7B44A4
:100CF00069460090204601F08AF8044600206946C3
:100D000001F098F820461CBD431100007CB51D463B
:100D100016460C00009001D02044401E074B7B4437
:100D20002A4669460190304601F071F805461CB12B
:100D30000020694601F07EF828467CBD1D110000A8
:100D40000FB4044910B503AA029802F05FF910BC71
:100D50005DF814FB682100100FB41CB5084B06AAFF
:100D60007B4469460090059801F051F80446002044
:100D7000694601F05FF820461CBC5DF814FB0000DA
:100D8000D110000070B5044685690068C10601D520
:100D9000302600E02026C00707D070BDD4E901212D
:100DA00030469047206A401C20626D1EF6D570BD0B
:100DB00070B5044685690078C00707D170BDD4E9D5
:100DC000012120209047206A401C20626D1EF6D52C
:100DD00070BD70B50C460546012A05D028788006FE
:100DE00000D5EA69002302E0012305E05B1C934281
:100DF00002D2E05C0028F9D1A869E618C01AA861FF
:100E0000286A184428622846FFF7BCFF04E0D5E9A9
:100E1000012114F8010B9047B442F8D32846FFF79C
:100E2000C7FF70BD2DE9F041064600241068752902
:100E3000314616A510D000F057FD002802DA4042D6
:100E400013A507E031688A0701D512A502E049071A
:100E500004D511A5012401E000F04FFD00210A2274
:100E600006F1240709E0B0FBF2FCB0FBF2F302FB51
:100E70001C00303078541846491C0028F3D1234612
:100E80002A463046BDE8F04100F040BD00000000B9
:100E90002D0000002B00000020000000F0B40D46E3
:100EA0000188090502D5214C7C4402E01F4C7C449A
:100EB0000E34002100F1240608E002F00F071209A9
:100EC000E75D42EA03721B097754491C52EA0307A3
:100ED000F3D102780023120704D5702D06D009B192
:100EE000022311342246F0BC00F010BD012310345F
:100EF000F8E770B504460D462146106800F0FDFC89
:100F0000024629462046BDE870400023C6E7D21DB0
:100F100022F00703D3E90023C0E70368126843F017
:100F2000200303600823C3610023B7E7FCBC000073
:100F30002DE9F05F894604464FF0000ADFF874B1EE
:100F4000FB44C0F820A02046E1688847002874D000
:100F5000252806D0D4E901219047206A401C206250
:100F6000F1E700265F462046E168884720280546CD
:100F700007DB312D05D2781910F8200C08B1064393
:100F8000F1E7B00701D526F00406C4F81CA000273D
:100F9000C4F818A02A2D09D0284606F003FE38B35D
:100FA00004EB8708303DC8F8185019E059F8041BC5
:100FB000204604EB87029161E1688847012F0546CE
:100FC00018D1E069002820DA26F020061DE0D8F8C4
:100FD000180000EB800005EB40003038C8F818001E
:100FE0002046E1688847054606F0DCFD0028EED182
:100FF000012F0AD02E2D08D12046E16888477F1C9A
:101000000546022F46F02006C4DBA069002803DA5B
:10101000404246F00106A061F00701D026F010061C
:101020006C2D0BD0682D09D04C2D39D06A2D35D0C0
:10103000742D35D07A2D33D016E038E0E1682F4694
:1010400020468847B842054609D16C2F26D04FF478
:101050008060E168064320468847054604E06C2F1F
:101060001AD04FF4807006430DB3A5F14100192842
:1010700002D8203546F400664A46294620462660B6
:101080004E46FFF787F980B101280BD0F61D26F0F8
:10109000070000F1080956E74020E4E78020D8E780
:1010A0000020D6E706F104094DE7284652E7206AFA
:1010B000BDE8F09F8CBC000000B58DB00990009297
:1010C0000B904FF0FF300A9000200C9005487844B8
:1010D0000690054878446A46079009A801F0D2F8BE
:1010E0000DB000BDD3110000EB1100002DE9FF5F32
:1010F0001D464FF0FF3B91464FF000085F46D5E993
:101100000146A96901987F1C8847296A8246884759
:101110000028F6D1BAF1FF3F0CD0002E24F4C064B1
:1011200019DD600614D5BAF12B0F09D0BAF12D0FD5
:101130000ED103E0584604B0BDE8F09F44F480644B
:10114000A96901987F1C8847761E8246002E02DD21
:10115000BAF1300F03D0B9F1000F26D032E0A969FF
:10116000761E01987F1C44F400748847002E824646
:1011700005DDBAF1780F06D0BAF1580F03D0B9F1F6
:10118000000F10D01EE0B9F1000F02D0B9F1100F1E
:1011900018D1A969761E01987F1C24F40074884731
:1011A0008246102002E0082000E00A20814609E083
:1011B000A96908FB0908761E01987F1C44F4007495
:1011C00088478246002E05DD4946504600F02AFF3A
:1011D0000028EDDAE96901988847A00502D46FF08C
:1011E0000100A8E7E00725D1600613D5600502D508
:1011F000C8F1000000E0404629680A1D2A6009681D
:10120000220501D5087015E0220701D5088011E0FC
:1012100008600FE02868011D29600068210502D5DB
:1012200080F8008006E0210702D5A0F8008001E0E8
:10123000C0F8008038467EE711B14FF4807201E0BB
:101240004FF480624FF4007301F092BB2DE9F04738
:1012500004464FF000094FF0FF37C568D4E9048613
:10126000A80707D0204601F03FFB304606F048FDB6
:10127000002802DA3846BDE8F087280502D5404646
:10128000FFF770FC4C21204600F041FA206D20F061
:10129000010020654846EEE770B505460A4E304627
:1012A00006F09CFC05F14C04204606F097FC28460D
:1012B000FFF7CCFF0546204606F014FD304606F049
:1012C00011FD284670BD0000100A00102DE9F04104
:1012D000044600F14C07384606F080FCE0688107C0
:1012E00012D0800601D5A66A04E0A16960680844AE
:1012F0002169461A204601F0F7FA002205463146D8
:10130000204601F041FA00E00025384606F0EAFCEC
:101310002846BDE8F0812DE9F04118B1BDE8F04163
:10132000FFF7D4BF0B4E0025304606F057FC0A4CA1
:101330006F1E07E02046FFF7C9FF00B13D46206D54
:1013400020F00104002CF5D1304606F0CBFC2846F5
:10135000DFE70000100A0010142100102DE9F0470B
:1013600016468846814602F14C07384606F036FCA0
:101370003046FFF76BFF18F8010B61280AD072287E
:1013800002D077283FD102E00125002405E00225A4
:10139000042402E0082448F2020518F8010B2B2867
:1013A00006D0622809D018F8010C74280AD00BE086
:1013B00045F0030544F00204EFE745F0040544F06E
:1013C0000104EAE744F010044846214606F00CFD0B
:1013D000411C18D00021316171604FF40071F5603B
:1013E000F1617061200704D530460222002101F02E
:1013F000CBF9306D40F001003065384606F072FCE4
:101400003046BDE8F0870026F7E72DE9F0411546A4
:101410000E460746204C204606F0E0FB2A463146A1
:101420003846FFF79BFF0546204606F05BFC284642
:10143000BDE8F0812DE9F0410E468046164D284664
:1014400006F0CCFB154C206DC10704D0410804D038
:1014500020F00104F7E7224612E05420FFF747FB93
:10146000070017D0206D47F0010108435421206583
:10147000384600F04CF907F14C0006F0C1FB3A4643
:1014800031464046FFF76AFF0446284606F02AFC2C
:101490002046CDE70024F8E7100A001014210010C0
:1014A00040EA010310B59B070FD1042A0DD310C8E1
:1014B00008C9121F9C42F8D020BA19BA884201D933
:1014C000012010BD4FF0FF3010BD1AB1D30703D07B
:1014D000521C07E0002010BD10F8013B11F8014B31
:1014E0001B1B07D110F8013B11F8014B1B1B01D14D
:1014F000921EF1D1184610BD10B5431C02E010F841
:10150000011B71B18107FAD14FF0013202C88C1A68
:101510008C4314EAC211F9D0C01A0A0603D0C01EC7
:1015200010BDC01A10BD0A0401D0801E10BD0902F2
:10153000FCD0401E10BD40EA010370B59B072ED1C0
:101540004FF00136042A2AD308C810C99D1B9D43B9
:10155000121F15EAC61517D0D8B2E1B2401A50EAE8
:10156000056110D198B2A1B2401A50EA05410AD1E2
:1015700023F07F4024F07F41401A50EA052102D138
:10158000180EA0EB146070BDA342DBD018BA21BACC
:10159000884201D9012070BD4FF0FF3070BD0AB9FB
:1015A000002070BD10F8013B11F8014B63B1A3425C
:1015B0000AD1521E08D010F8013B11F8014B1BB1A3
:1015C000A34201D1521EEDD1181B70BD032A40F277
:1015D000308010F0030C00F0158011F8013BBCF1D5
:1015E000020F624498BF11F801CB00F8013B38BFED
:1015F00011F8013BA2F1040298BF00F801CB38BFFB
:1016000000F8013B11F0030300F02580083AC0F018
:10161000088051F8043B083A51F804CBA0E80810C0
:10162000F5E7121D5CBF51F8043B40F8043BAFF3F3
:101630000080D20724BF11F8013B11F801CB48BF4D
:1016400011F8012B24BF00F8013B00F801CB48BF83
:1016500000F8012B704710B5203AC0F00B80B1E8BC
:101660001850203AA0E81850B1E81850A0E81850D7
:10167000BFF4F5AF5FEA027C24BFB1E81850A0E8E0
:10168000185044BF18C918C0BDE810405FEA827CFA
:1016900024BF51F8043B40F8043B08BF7047D20711
:1016A00028BF31F8023B48BF11F8012B28BF20F8B2
:1016B000023B48BF00F8012B704702F0FF0343EAEA
:1016C000032242EA024200F002B84FF0000204296D
:1016D000C0F0128010F0030C00F01B80CCF1040C61
:1016E000BCF1020F18BF00F8012BA8BF20F8022B95
:1016F000A1EB0C0100F00DB85FEAC17C24BF00F83B
:10170000012B00F8012B48BF00F8012B70474FF068
:10171000000200B5134694469646203922BFA0E841
:101720000C50A0E80C50B1F12001BFF4F7AF09074D
:1017300028BFA0E80C5048BF0CC05DF804EB89003E
:1017400028BF40F8042B08BF704748BF20F8022B81
:1017500011F0804F18BF00F8012B70474FF0013C8B
:1017600050F8042B51F8043B9A4221D1A2EB0C0310
:10177000934313EACC1317D150F8042B51F8043BD0
:101780009A4215D1A2EB0C03934313EACC130BD16D
:1017900050F8042B51F8043B9A4209D1A2EB0C03F8
:1017A000934313EACC13DBD04FF00000704700BF27
:1017B000D01A01BAB1FA81F101F0180122FA01F050
:1017C000CB40C1F12001DBB2C0B2C01A2CFA01F348
:1017D000D11A914311EAC311E6D17047704770479F
:1017E0007047000070B5064C7C44064D7D4403E014
:1017F000206820448047241DAC42F9D170BD000010
:101800008CBD000090BD00002DE9F04117460E464A
:10181000054633B107FB0354E41B2046B047A542FD
:10182000FAD1A5F10800BDE8F0810000004870473A
:101830001022001010B5FFF7F9FF083010BD10B5E9
:10184000FFF7F4FF203010BD7047704770477047B6
:1018500038B504460A4600206946AFF300800028E8
:1018600008BF38BD02460099204601F0ADF90120BD
:1018700038BD012002F023B9F8B5AFF3008005466A
:1018800000200C46102000BF0646A819A0420DD922
:10189000324669460020AFF30080070008BF02F01F
:1018A0000EF90098A04218BF0546C419FFF7C2FF01
:1018B00005600746F01D20F007004619284600F095
:1018C0000AF8B44208BFF8BDA21B31463868BDE82B
:1018D000F84001F079B900210160C0E901100C3035
:1018E00006F08EB91020704709684A0501D540B24C
:1018F0007047C905FCD500B2704709684A0501D593
:10190000C0B27047C905FCD580B270472DE9F047D9
:101910000D4699469246044600F12408016888065F
:1019200004D5E06921F01001216000E00120A84207
:1019300001DD471B00E00027A1697A1902EB0900CD
:10194000081AA0612078C00602D42046FFF71AFAD0
:10195000002608E0D4E901211AF806009047206A21
:10196000401C761C20624E45F4DB2078C0060AD568
:101970002046FFF707FA06E0D4E90121302090471E
:10198000206A401C2062381EA7F10107F4DC07E042
:10199000D4E9012118F805009047206A401C206214
:1019A000281EA5F10105F3DC2046FFF701FA207897
:1019B000000602D50220BDE8F0870120FBE7116890
:1019C0000268006A530501D508700AE0D30501D505
:1019D000088006E0130603D5C217C1E9000200E043
:1019E00008600120704770472DE9FF4F0C461E46E6
:1019F0004FF0FF378BB0D2E90001DDF860800A902C
:101A00008A46C1F30A5505B93D46002108464FF004
:101A10000000BAF1000F00F4400005DA00EB80008E
:101A20004FF4400101EA50004FEA9059B9F1010F1B
:101A300000DDB9460A9850EA4A000ED044F610502C
:101A4000A5F2FF3545432F14B8F1000F1ED07542A3
:101A5000291E1EDDC9F100021CE0B8F1010F4FF094
:101A6000000001D0302103E0F24305E02154401C86
:101A7000B042FBDB30460022002121540B99C1F813
:101A80000880C1E900200FB0BDE8F08FBD1B6D1CC0
:101A9000DEE74A4600DA694206A801F033FF06ABEA
:101AA00093E8070003AB83E8070050460A9902F069
:101AB000C3FA8DE80700A0F500501F380090039886
:101AC000002D0ADD42F21F014A460844002303A903
:101AD0000390684602F06EFD09E0A0F500504A460A
:101AE0001F38002303A90390684602F08DFD8DE89E
:101AF00007000004000C03D04FF0FF30410800E065
:101B00001046B8F1000F03D00022009215461EE0E7
:101B1000751E05D401F077F8303262556D1EF9D587
:101B2000B3460122084302D000227F1C04E0207843
:101B3000302801D100227F1E002A099784D01DE0A1
:101B4000112D07DA01F05FF8303262556D1C50EA52
:101B50000102F5D1084302D00098C8B10EE000217F
:101B6000681E05E0235C625C63542254401E491CDD
:101B70008142F7DBAB46A81B401E0990002004F809
:101B80000B000B98099AC0F80880C0E9002B7AE78F
:101B900011264FF0000857E72DE9F04F884604461C
:101BA000D21D22F0070191B0D1E90001CDE90A016F
:101BB00005F06EFE02460B98C00F01D02D2007E005
:101BC0002068810701D52B2002E0202101EAC00016
:101BD000032A099001D0072A05DB03464146204627
:101BE00001F0D4F90BE12078800601D5E06900E02E
:101BF0000620B8F1650F814606D0B8F1660F18D0FF
:101C0000B8F1670F70D131E00020B9F1110F0090E9
:101C100001DB112301E009F101030AAA01A90CA8C3
:101C2000FFF7E2FEDDE90C70002609F101058346AD
:101C300047E001204B4600904FF000470AAA01A957
:101C40000CA8FFF7D1FEDDE90DB00C995D4600262A
:101C500010B909F101000D18B9EB050003D4C0F16A
:101C6000FF3609F10105A5EB09002BE0B9F1010FE1
:101C700001DA4FF001090020B9F1110F0090484638
:101C800001DD112300E003460AAA01A90CA8FFF711
:101C9000ABFEDDE90C704D46002683462078000738
:101CA0000AD4AB4500DA5D4601A8012D04DD4119D7
:101CB00011F8011C302907D04F4502DA17F1040F43
:101CC00004DA012082460FE06D1EEEE7002F02DCF1
:101CD000ED1B3E4403E0781CA84200DD7D1CB81BD0
:101CE00000F1010A4FF000472078000703D4AA450D
:101CF00001DB4FF0FF3A0021B7F1004F0DF143082F
:101D00008DF8431024D002202B23002F01DA7F42CC
:101D10002D230A21021EA0F1010000DC5FB197FB18
:101D2000F1FC97FBF1F201FB1C7C17460CF1300C27
:101D300008F801CDEEE7A8F101000370218809053C
:101D400001D5452100E06521A0F1010800F8011C42
:101D500009980FA9A1EB0807FF1D00B10120411947
:101D600001EBEA70A1693844081A401EA06120788E
:101D7000C00602D42046FFF705F8099828B1D4E937
:101D800001219047206A401C20622078C00622D59D
:101D90002046FEF7F7FF1EE0002E04DBB34502DD10
:101DA00001A8805D00E03020D4E901219047206A3D
:101DB000401C2062761CAAF101005FEA000A0AD1E9
:101DC000FFF73DFDC0680168405CD4E90121904700
:101DD000206A401C2062281EA5F10105DCDC07E01A
:101DE000D4E9012118F8010B9047206A401C2062B9
:101DF000381EA7F10107F3DC2046FEF7D9FF0320C8
:101E000011B041E601694A1C02610878704700B5CB
:101E10008FB0CDE901310021059105497944CDE923
:101E2000031011466846FFF783F80FB000BD0000AD
:101E3000E5FFFFFF0A6802F8010B0A607047D1E96D
:101E400000239A4202D2531C0B601070704710B5E9
:101E5000436913B1AFF3008001E0FEF7BAFF012040
:101E600010BD127800F124010A7000224A7001228C
:101E7000EDE711684FF0FF32E9E700002DE9FF5F61
:101E800015468A460446DFF8AC80F8440027D8E9B6
:101E900000103E46CDE9001010E03AF816106A46F0
:101EA00002A801F0E0FD411C07D02178890603D586
:101EB000E269391891420DD80744761C20788006D3
:101EC00002D5E069B84205DDAE42E6DB3AF816001D
:101ED0000028E2D1A069C01BA0612046FEF752FF96
:101EE000D8E90010CDE90010002017E03AF81810EA
:101EF0006A4602A801F0B7FDB0F1FF3F81460BD062
:101F000000250DF1080B05E0D4E901211BF80500BF
:101F100090476D1C4D45F7D308F10100B042804653
:101F2000E4DB206A384420622046FEF741FFBDE82A
:101F3000FF9F000056AD00002DE9F0418046D21D04
:101F400022F007020025D2E90002F52915A614D0D7
:101F5000011E72F1000106DA0023D0EB030063EBEF
:101F6000020211A608E0D8F800108B0701D50FA6D1
:101F700002E0490701D50EA601251146002408F10B
:101F8000240704E000F03FFE30323A55641C50EA6A
:101F90000102F7D12B46324621464046BDE8F041CA
:101FA000FFF7B4BC000000002D0000002B00000073
:101FB0002000000030B4002100F1240408E002F009
:101FC0000705D208303542EA4372DB086554491CE4
:101FD00052EA0305F3D10468002310A2250707D5B0
:101FE000A40600D421B1C46901230DA2641EC461FA
:101FF00030BCFFF78BBC10B5044621461068FFF7D4
:102000007CFC02462046BDE810400023D2E7D21DEA
:1020100022F00701D1E90023CCE700000000000016
:10202000300000003A2800D2303820F02002412A47
:1020300001D3A2F13700884201D34FF0FF3070473F
:102040002DE9FF4F1C4691464FF0FF3581B000212E
:102050008A468846D4E90167A16902986D1C8847C1
:10206000216A834688470028F6D1BBF1FF3F0CD098
:10207000002F26F4C0661ADD700615D5BBF12B0FB4
:102080000AD0BBF12D0F0FD104E04FF0FF3005B0A7
:10209000BDE8F08F46F48066A16902986D1C884700
:1020A0007F1E8346002F02DDBBF1300F03D0B9F154
:1020B000000F2AD025E0A1696D1C02987F1E46F40E
:1020C00000768847002F834605DDBBF1780F06D0E8
:1020D000BBF1580F03D0B9F1000F10D011E0B9F1E6
:1020E000000F02D0B9F1100F0BD1A1696D1C02983D
:1020F0007F1E26F4007688478346102000E00820E3
:1021000081464FEAE970009017E00A20F8E743465D
:10211000AAFB0928DDF800C07F1E03FB098046F4F6
:10212000007605F101050AFB0C0112EB0B0A02987F
:1021300041EBEB78A16988478346002F06DD4946CD
:102140005846FFF76FFF5FEA000BE0D5E1690298A0
:102150008847B00502D46FF0010098E7F00718D166
:10216000700610D55146700505D50023D1EB03014B
:1021700063EB080200E042462068031D236000680C
:10218000C0E9001205E02068011D21600068C0E977
:1021900000A828467BE72DE9FF5F4FF0000899462D
:1021A000144646469169D2E901A7DDF838B0019896
:1021B0008847054659EA0B0005D009E0A169019856
:1021C000761C88470546216A284688470028F5D1AD
:1021D000681C03D05FEACA7005D015E04FF0FF30ED
:1021E00004B0BDE8F09F2068011D2160D0F8008098
:1021F0000AE05FEACA7001D108F8015BA169761CA8
:1022000001987F1E88470546002F1ADD681C18D0EC
:10221000B9F1000F0DD0E81705EBD060421120F0A6
:102220001F0059F822102A1A012090400142E0D1E3
:1022300007E0BBF1000FDCD12846216A884700285F
:10224000D7D0E16901988847BBF1000F07D1002E74
:1022500005DD5FEACA7002D1002188F80010A0688D
:10226000B84203DDBBF1000F03D017B16FF00100DE
:10227000B6E73046B4E70000026811441378016005
:1022800018467047D1600549794451610449794441
:10229000116200211161114600F0EEBEEDFFFFFF5B
:1022A0006B670000426842B1016811F8013B23B13D
:1022B000521EC0E90012184670470121C160881EF5
:1022C000704742685AB1C368016843B983688B425A
:1022D00005D0491E521CC0E90012002070474FF083
:1022E000FF3070472DE9FF4F4FF000089A46144623
:1022F000C146464683B0D2E901B7CDF80080CDF89B
:102300000480916904988847109905465AEA0100AB
:1023100005D009E0A1690498761C88470546216A22
:10232000284688470028F5D1681C03D05FEACB70A7
:1023300005D02AE04FF0FF3007B0BDE8F08F2068ED
:10234000011D2160D0F800801FE002A86A46E9B2B2
:1023500001F06BFB411C07D0801C09D04FF0000935
:102360005FEACB7007D00AE0E169049888473EE055
:102370004FF0010904E0BDF8081028F8021B7F1E89
:10238000A1690498761C88470546002F1ADD681C51
:1023900018D0BAF1000F0DD0E81705EBD06042114C
:1023A00020F01F005AF822102A1A01209040014202
:1023B000CBD107E010980028C7D12846216A88476A
:1023C0000028C2D0E16904988847B9F1000F0ED106
:1023D000109830B9002E04DD5FEACB7001D1A8F867
:1023E0000000A068B84202DD109818B117B16FF074
:1023F0000100A1E730469FE72DE9FF4F4FF00008AD
:102400009B461446454683B0D2E90196CDF800803C
:10241000CDF804809169DDF848A004988847074604
:102420005BEA0A0005D009E0A16904986D1C8847A1
:102430000746216A384688470028F5D1781C03D022
:102440005FEAC97005D01BE04FF0FF3007B0BDE870
:10245000F08F2068011D2160D0F8008010E05FEA55
:10246000C97007D16A464046B9B201F0FCFA411C76
:1024700031D08044A1696D1C0498761E88470746B8
:10248000002E14DD781C12D0BBF1000007D03B46B3
:10249000DDE9101201F026FA0028E0D107E0BAF1D8
:1024A000000FDCD13846216A88470028D7D0E1697F
:1024B00004988847BAF1000F06D1002D04DD5FEAC9
:1024C000C97001D188F80000A068B04203DDBAF1FC
:1024D000000F03D016B16FF00100B7E72846B5E74B
:1024E0002DE9FF5F9B46144600273D469169D2E9DE
:1024F0000196DDF840A00198884780465BEA0A0013
:1025000005D009E0A16901986D1C88478046216AC1
:10251000404688470028F5D1B8F1FF3F03D05FEA75
:10252000C97005D014E04FF0FF3004B0BDE8F09F53
:102530002068011D216007680AE05FEAC97001D1C7
:1025400027F8028BA1696D1C0198761E884780468A
:10255000002E15DDB8F1FF3F12D0BBF1000007D00F
:102560004346DDE90E1201F0BDF90028E5D107E090
:10257000BAF1000FE1D14046216A88470028DCD03B
:10258000E16901988847BAF1000F05D1002D03DDFC
:102590005FEAC97000D13880A068B04203DDBAF1AB
:1025A000000F03D016B16FF00100BEE72846BCE76C
:1025B0002DE9F04705460C46C86820F4201040F489
:1025C0008000C860800602D5084600F0B0F9E068D7
:1025D00041F282014FF0FF390140022903D0204629
:1025E00000F04EF9B5E000F42041B1F5004F0FD1F5
:1025F000C00306D56168E06A884200D8084660607A
:1026000006E02069E0626060606905F0A1FBA061FE
:10261000A0680022EEB200280DDAE1688B050AD42A
:10262000C043A06041F490302260E0606068411CCB
:1026300061600670A5E0E0689046226040F40050BA
:10264000E060206968BB606905F0ACFB012704F11C
:102650002405A0B1A08910F4407F08D0E069FEF7FE
:1026600046FA206118B1E06840F4006016E0E761C6
:102670002561E06820F4407040F480600EE0E0697D
:10268000FEF735FA00282061F1D0E06840F40060E0
:1026900010F4407FE06002D140F48070E060206977
:1026A0006060E06825696FF0010AC1051FD56168A7
:1026B000E06A884200D80846411B04D022462846DA
:1026C00000F0E8F8F0BBE068010203D5E562C4E978
:1026D000015854E0691CE1626160E16940F48030B6
:1026E000491EC4E9021030462E70BDE8F087010291
:1026F00002D500F480320AE06068411C6160067017
:10270000E0680A2E40F48030E06006D00022E16AE2
:102710006068814203D90B4602E00122F7E70346D5
:10272000A7895B1B7F0503D4E7699F4200DDE2B107
:10273000814200D80146E5620F1AC4E90158002B16
:1027400009DD00E005E022461946284600F0A2F81F
:1027500008B14846C9E747B1A069E5626560C01B9A
:10276000A061E06840F01000E060E068000208D579
:102770006168A069E562491B08446560A061504634
:10278000B3E73046B1E700002DE9F04104461646B4
:102790000D464769007B80072ED0384605F002FBC6
:1027A00050BB3EB3012E02D0022E25D104E02046BC
:1027B00001F01AF905441DE0384605F0C9FAE16850
:1027C000002841F01001E16005DA204600F058F8D9
:1027D0000120BDE8F081C9030BD56268E16A91422E
:1027E00000D81146A26911442269891A814200DD8C
:1027F00008460544002D01DA0220EAE7E16A606834
:10280000E268814206D29103E06203D522F40031EE
:1028100041F01002A6690027AE4213DCE16A814252
:1028200001D90B4600E0034603EB060C2369ACEB31
:10283000030CAC4506DD814201D98C4600E084469C
:102840009C4505D1A760276042F02000A5620DE0FD
:10285000AD1BE669AE1B8142A66000D90846C01ACE
:10286000281A20605819606022F0200003490840AF
:10287000E060002084F84870ABE70000BFCFD7FFCE
:10288000C16821F4001141F08001C1600021816024
:10289000016070472DE9F047814614460E464FF01F
:1028A000FF383248D5685769054209D03846A169D2
:1028B00005F05AFB002811DB2C48C0430540E560B9
:1028C0002B4632464946384605F080FBA16920F088
:1028D0000042B21A11440028A16103D02046FFF73C
:1028E000CFFF4046BDE8F08770B504460569C06A71
:1028F0006168884200D80846E16821F42011E1604F
:10290000C90312D5A84208D02246411B2846FFF72A
:10291000C1FF10B14FF0FF3070BD0020E562C4E987
:102920000150E06820F48030E060002070BD10B5F8
:102930000446C06820F02000E060A16AA0698842D7
:102940000DD02046FFF7D0FFE06820F4405040F063
:102950001000E060A06AA0612069E062606044F25B
:102960004001E0688843E06010BD000010000200F4
:102970002DE9F04704461E4690460D46C7684C3088
:10298000814605F02BF9B80714D0780212D44046DE
:10299000B8F5807F09D0B0F5007F06D0B8F5806F1C
:1029A00008D1012604F1240506E0701E6FF07F4176
:1029B000884201D3012409E02561E6616560E06891
:1029C00020F4706040EA0800E0600024484605F00A
:1029D00089F92046BDE8F08710B565485421FEF717
:1029E00096FE64485421FEF792FE63485421FEF798
:1029F0008EFE62485E49624A624B01605D4810602B
:102A00005D4A1A60431C0B65511C0165012010656D
:102A100057484C3005F0F4F856484C3005F0F0F8C3
:102A200055484C3005F0ECF8574805F0E9F858489F
:102A30004F4A56A17844FEF7E8FC20B95448784440
:102A40000A3801F035F854484A4A52A17844FEF752
:102A5000DCFC20B9504878440A3801F029F84F4886
:102A6000454A4CA17844FEF7D0FC20B94B48784445
:102A70000A3801F01DF840233D48DC0000212246C1
:102A8000FFF776FF20B142487844543801F010F83F
:102A90003848224640230021FFF76AFF20B13E4814
:102AA0007844543801F004F83348224610230021BA
:102AB000FFF75EFF002806D038487844BDE8104094
:102AC000563800F0F5BF10BD2B482DE9F041006DE0
:102AD0002D4E20F00104304605F080F8244D4C3591
:102AE000284605F07BF82248FEF7B0FB284605F0A3
:102AF000F9F82846AFF300801E4D4C35284605F006
:102B00006DF81C48FEF7A2FB284605F0EBF82846B6
:102B1000AFF30080184D4C35284605F05FF8164895
:102B2000FEF794FB284605F0DDF82846AFF3008059
:102B300014E0206D20F0010504F14C00074605F07B
:102B40004DF82046FEF782FB384605F0CBF83846B4
:102B5000AFF300802046FEF705F82C46002CE8D1A4
:102B6000304605F0BFF80848AFF30080BDE8F081BB
:102B70001421001068210010BC210010040A00106C
:102B8000080A00100C0A0010100A00107200000061
:102B9000309D0000770000001F9D00000F9D000089
:102BA00010B500F093FFBDE8104000F07CBF08B501
:102BB00069468DF800000320ABBE08BD014918200E
:102BC000ABBEFEE72600020030B404468C464368E4
:102BD000002B18BF634538BF1846F8D30368184464
:102BE000604507D0C81C20F0070000F1040CACEBD6
:102BF0000100121A2146CCF8002030BC00220CF152
:102C00000400FDF77EBF30B5B0F10A024FEA900E26
:102C100071F100034EEA817EB0EB0E0061EB910191
:102C20004FEA101E4EEA017E10EB0E0041EB11112F
:102C30004FEA102E4EEA016E10EB0E0041EB11210F
:102C40004FEA104E4EEA014E10EB0E0041EB1141DF
:102C5000401841F100014FEAD00040EA41704FEACC
:102C6000D10110EB80054FEA810444EA907444EBF3
:102C700001046D1944EB0404521BA3414FF00003FF
:102C800048BF0A3200D530BD401C41F1000130BDC3
:102C90002DE9F04F04460D46D21D22F0070089B001
:102CA000D0E900974846394604F0F2FD0246F80F95
:102CB00001D02D2307E02068810701D52B2302E0F6
:102CC000202101EAC0038DF820300BB1012000E083
:102CD0000020032A824601D0072A04DB2946204629
:102CE00000F054F93FE12078800601D40D2500E082
:102CF000E569C7F30A560D2D49DA00214FEA175B43
:102D000008464FF00000002F00F4400007DA00EB07
:102D100080004FF4400100EBD07001EA60008115A3
:102D2000012901DD4FF0FF3100224FEA850CBCF193
:102D3000180F06D31346ACF118004FF08052C24072
:102D400003E04FF4801323FA0CF30CF10C0CBCF1EC
:102D5000200F04D3ACF1200C09FA0CF001E007FAC3
:102D60000CF000294FF0004801DD18B90FE00ED13A
:102D700040450CD319EB02095F4121B9404502D10E
:102D80009F4329EA0209BBEB175F00D0761C20881D
:102D9000000502D57B48784402E07A487844193827
:102DA00008AA302302F80A30037C0AF10101002E40
:102DB0000AF1020A53546A4602DC4FF0300101E086
:102DC0004FF031014FF001088DF8001002D0A6F24B
:102DD000FF3603E059EA470100D06B4E002D02DCBC
:102DE0002178090704D54FF002082E218DF8011033
:102DF000C44600210BE0C7F303433F01C35C491CF9
:102E00006D1E02F80830052908F1010801DA002DCD
:102E1000F1DC00210CE000EB1973491C1B786D1EDE
:102E2000082902F808304FEA091908F1010801DA07
:102E3000002DF0DC21688B0602D516E0A8F1010810
:102E4000E04505DD02EB080313F8013C302BF5D01B
:102E5000B8F1000F09DD02EB080313F8013C2E2B3B
:102E600003D1090701D4A8F10108002D05DD3E2199
:102E700002F808106D1E08F10108407C002E02F8CF
:102E8000080008F1010804DA2D20764202F8080053
:102E900002E02B2002F808000A214FF47A708642E3
:102EA00008F101080BDB96FBF0F3303302F8083031
:102EB00096FBF0F308F1010800FB136601E0642EB5
:102EC0000CDB642096FBF0F3303302F8083096FBFD
:102ED000F0F308F1010800FB136601E00A2E06DB9F
:102EE00096FBF1F0303002F8080008F1010896FB7B
:102EF000F1F001FB1060303002F80800A16908F120
:102F0000010808EB050202EB0A00081AA06120780C
:102F1000C00602D42046FDF735FF216A08AE01EB5A
:102F20000A00206204E0D4E9012116F8010B904761
:102F3000BAF1010AF7D22078C00602D52046FDF783
:102F400021FF6E4609E016F8010B3E280FD0D4E9A8
:102F500001219047206A401C2062B8F10108F2D29A
:102F60002046FDF725FF09B00320BDE8F08F206A59
:102F70002844206203E0D4E90121302090476D1EEF
:102F8000EBD3F8E7659E000002FCFFFF2DE9F0415E
:102F90001F46044603260168072A01F4006004DB8B
:102FA00008B116A505E016A503E008B115A500E0D7
:102FB00015A521F010002060A069C01EA0610FB10E
:102FC000401EA0612046FDF7DDFE4FB1D4E901218E
:102FD00038469047206A401C2062C01C206206E0F0
:102FE000206AFAE7D4E9012115F8010B9047761E13
:102FF000F8D22046FDF7DCFEBDE8F0814E414E00E0
:103000006E616E00494E4600696E66002DE9F04122
:1030100014460D46074601F14C06304604F0DEFD2D
:10302000094B7B44224629463846FEF7F0FE04460B
:10303000287B000601D54FF0FF34304604F052FEE5
:103040002046BDE8F0810000D352000010B543696E
:1030500013B1AFF3008001E0FEF710FF012010BDB7
:10306000128800F1240182840022C2840122EDE74B
:1030700011684FF0FF32E9E72DE9F34F4FF0000AF6
:103080000C4656468DB001200C9001F10C000B90BF
:1030900062690B9801219047051E2DD0252D2CD05B
:1030A000216A8847C0B162690B9801219047216A63
:1030B00088470028F7D16269411E0B98904700E0CD
:1030C000761CA1690D988847216A88470028F7D1A6
:1030D000E1690D988847DBE7A1690D988847A84208
:1030E000074601D1761CD3E7E1690D9888477F1C1C
:1030F00002D1BAF1000F6FD06BE162690B98002723
:103100003D46394690472A2804D162690B9801212F
:1031100090470125DFF8D08262690B980121904722
:10312000A0F130010A290AD24745E5DC07EB870107
:1031300000EB4107303FDFD445F01005ECE7E9062E
:1031400001D46FF000476C280AD04C2814D06828AE
:1031500015D06A280DD074281CD07A281AD01DE00A
:1031600062690B98012190476C2802D045F0040554
:1031700014E045F002050DE045F020050AE0626923
:103180000B9801219047682802D045F0080505E01A
:1031900045F4006562690B9801219047C4E9015725
:1031A00065283DD019DC58287AD00CDC452837D06A
:1031B00004DC252826D041289ED131E046282FD096
:1031C000472899D12CE05B2877D0612828D0632844
:1031D0007CD0642823D15AE0F6E06F2848D008DC80
:1031E00066281DD067281BD0692821D06E2816D1EB
:1031F00027E0702845D0732868D0752847D07828F4
:103200000DD14DE0A1690D988847252805463FF46A
:1032100069AFE1690D9888476D1C3FF46AAFD8E04B
:103220000D9923466A466FF0010009F0D2F9C5E016
:1032300045F0400023464FF000026060A80736D4F6
:103240003EE0E8077FF447AF2068011D2160006879
:10325000290501D506701BE7290701D5068017E768
:10326000A90703D5F117C0E9006111E706600FE770
:1032700045F0400023464FF008026060A80716D4CE
:103280001EE040F60E0125EA0100606016E045F000
:10329000400023464FF00A026060A80707D40FE001
:1032A00045F040006060A80708D5234610220D991C
:1032B0006FF00100FEF7C4FE80E007E01022234615
:1032C0000D996FF00100FDF711FF77E04FF0000955
:1032D00063284F46C8464B46CB4602D05B2806D0F3
:1032E00038E0E80601D40120A060012732E06269DD
:1032F000D4F80CB00B98012190475E2807D14FF00D
:10330000010949466269D4F80CB00B9890472169CD
:1033100039B900210A4603AB43F82120491C08298A
:10332000FADBD8B3216949B308F1010862690B9847
:10333000012190475D28F4D1B9F1000F09D0002098
:1033400003A951F82020D24341F82020401C08282E
:10335000F7DB03AB2069002820794FEA40701ED0CC
:103360005B462246CDF80080CDE901970D990028F3
:103370006FF0010020DAFFF7B3F81FE0C11703AACE
:1033800000EBD1614B1121F01F0102EB8302411AC6
:1033900013680120884003431360C7E719E00D99C3
:1033A000224600286FF00100009702DAFEF79AFF2C
:1033B00004E0FEF7F0FE01E0FFF71EF800280ADA4D
:1033C000401C06D10C9820B14FF0FF300FB0BDE883
:1033D000F08F5046FAE7E90701D10AF1010A0644E5
:1033E00000200C9054E60000CCCCCC0C2DE9FF4F13
:1033F00006468BB00878FF2806D0491C2D2805D03A
:1034000000244FF0000908E000200CE00124F8E758
:1034100009EB8903491C00EB43090878FF28F7D121
:1034200014B1C9F100008146107800252C46AA4647
:1034300029462D2801D02B2804D1521C2D2813D029
:10344000002082468B461078FF280FD04FF0000CEA
:103450000A21521CA5FB017804FB018105FB0C111C
:10346000C5194BEB0104EEE70120EAE7002108460D
:103470004FF00000BAF1000F02D000EB80004008CE
:10348000C0F38157012F01DD4FF0FF370E9955EA48
:10349000040009EB01080BD04FF0020918F5FA7F80
:1034A00016DA4FEACA70002F706008DD012007E0CD
:1034B0004FEACA70C6E900B00FB0BDE8F08F002037
:1034C0003060FDF7CDFAC0F800901821084616E0EC
:1034D000B8F5FA7F18DD002F02DAF748784401E0EA
:1034E000F6487844D0E90010C6E9001040EACA70F6
:1034F0007060FDF7B5FAC0F80090142108460FB0CF
:10350000BDE8F04F08F0FEBF002108464FF0000074
:10351000B8F10001099002DAC7F1000200E03A4672
:1035200001DAC8F1000106A800F0ECF906AB93E857
:10353000070003AB83E8070044F23E005BEA0401A6
:103540000090584604D144F21E012C465D4600917D
:10355000210C0904014306D10099240444EA1544CE
:103560002D041039009104F07F41014306D10099E8
:10357000240244EA15642D020839009104F07041D8
:10358000014306D10099240144EA15742D01091F55
:10359000009104F04041014306D10099A40044EA9F
:1035A0009574AD00891E009104F00041084304D1D8
:1035B00000986D196441401E00904FF001033A4697
:1035C0006846B8F1000FCDE9014503A902DD01F01D
:1035D00030F801E001F003F8BAF1000F04460D469F
:1035E00001D084F00044002108464FF00000099902
:1035F00040F2FF77484010F00C0F07D124F0004054
:10360000284303D0C4F30A50B84212D1FDF728FA78
:10361000C0F80090C4F30A50B8420AD1A8487844D0
:10362000D0E90010C6E9001004F0004108437060C2
:1036300042E7C6E900543FE72DE9FF4F1F464FF030
:10364000000A4FF0FF38454691B0D7E90146CDF862
:103650003CA0FEF7F4F8C0680168405C1090B969BE
:1036600012986D1C8847396A814688470028F6D130
:10367000B9F1FF3F0AD0002E24F4D06411DDB9F176
:103680002B0F08D0B9F12D0F0BD102E0404615B039
:1036900013E744F48064B96912986D1C8847761E5C
:1036A0008146600504A901D52D2000E02B20002EC5
:1036B00001F1010B0DF130088DF810003FDDB9F17B
:1036C000690F08D0B9F1490F05D0B9F16E0F02D0DA
:1036D000B9F14E0F1CD13B4601A8009580E850027D
:1036E000DDE912126FF0020008F077FFC11CCED1A5
:1036F0000EE0B96912986D1C884781461398761EB2
:1037000044F4007405600F98401C002E0F9016DDE5
:10371000B9F1300FEDD0B9F1780F02D0B9F1580FEF
:103720000DD10F9801280AD13B46CDE90054DDE9BF
:103730001212001F029608F04EFFC11CA7D110996B
:1037400089453ED144F0800406E01399681CAAF133
:10375000010A44F400740860B9696D1C1298761E61
:10376000884730288146F0D02BE01099894505D153
:10377000200603D4761E44F0800418E0484604F086
:1037800011FA08B3761E0DF123018B4544F4007441
:1037900008D2A9F130000BF8010B200607D5AAF1D9
:1037A000010003E0200602D40AF101008246A005D0
:1037B00002D51399681C0860B96912986D1C884776
:1037C0008146002ED1DC53E0002E51DDB9F1650FAA
:1037D00002D0B9F1450F4BD1A00549D5B9696D1C8F
:1037E0001298761E24F440748847002E81460CDD22
:1037F0002B2804D0B9F12D0F07D144F48074B96996
:1038000012986D1C8847761E8146E00501D52D2152
:1038100000E02B2108F8011BCDF8008021E0761E86
:103820000DF13901884544F400740CD2A9F130003F
:1038300010F0FF0088F8000002D10099884509D9EE
:1038400008F1010806E0E00501D51E4801E042F25A
:103850000F708246B96912986D1C8847814613988B
:103860000560002E04DD484604F09CF90028D6D1FE
:10387000F96912988847FF2053468BF8000088F8B2
:10388000000000200A900B9004AA0CA90AA8FFF7D8
:10389000ADFDA00502D46FF00100F8E614F0240F8E
:1038A00012D0E0071CD13868DDE90A12031D3B6025
:1038B0000068C0E9001213E0649F0000569F0000FA
:1038C0001A9E0000F1D8FFFF0AA9684604F042F8EA
:1038D000E00705D13868009A011D39600068026070
:1038E0002846D4E610B508E030F8024B9C4204D1DB
:1038F0000AB1002010BD012010BD491EF4D21046AF
:1039000010BD00002DE9F047814616468AB03548C3
:1039100078440DC88DE80D0032487844801C03AC13
:103920000DC884E80D0041F69B300844372190FB18
:10393000F1F290FBF1F5A5F1800501FB12041B3CAF
:1039400002D56442012000E00020DFF898A0804604
:103950000027FA44AAF1BE0A0EE0E0070AD0324678
:10396000684607EB470101230AEB810100F04CFE9A
:103970008DE8070064107F1C002CEED1194F7F44A6
:10398000AE3F19E0E80715D007EB04100DF1180A57
:1039900090E80E008AE80E00C068F04201D1981944
:1039A00008903246012306A903A800F02DFE03ABC0
:1039B00083E807006D10641C002DE3D14FF0010374
:1039C00032466946B8F1000F03A802D000F0F2FDBC
:1039D00001E000F019FEC9E90001C9F808200AB0A9
:1039E000BDE8F0877C93000010B50146C2689007DF
:1039F00003D0900607D5886A0AE0FDF731F8012167
:103A00000160881E10BD8B69486818440B69C01A94
:103A100091F848301BB191F84910401A10BD1103BC
:103A2000FCD50028FADD401E10BD70B516460C46C8
:103A30000546FDF70DF8036893F80101012804D04D
:103A4000185D68B101202C8070BDD3F803013246A7
:103A5000214603F2031303442846BDE8704018478B
:103A60004FF0FF3070BD70B516460C460546FCF7AA
:103A7000EFFF036893F80101012806D0FF2C0FD84F
:103A8000185D68B101202C7070BDD3F80701324673
:103A9000214603F2071303442846BDE87040184747
:103AA0004FF0FF3070BD002801D0FFF787B8704796
:103AB00010B500F045F8BDE81040FFF7F4BF10B5B1
:103AC00000F058F8BDE81040FFF7EDBF10B5002139
:103AD00002A000F01CF8012010BD0000534947501F
:103AE00056464E3A2050757265207669727475613B
:103AF0006C20666E2063616C6C656400704710B565
:103B0000FDF798FE0068BDE8104000F05BB870B5A6
:103B100005460C460A2000E06D1CFFF748F835B159
:103B200028780028F8D102E0641CFFF740F814B1AF
:103B300020780028F8D1BDE870400A20FFF737B898
:103B400010B5014602A0FFF7E2FF012010BD000002
:103B500053494752545245443A205265646972654C
:103B600063743A2063616E2774206F70656E3A202B
:103B70000000000010B5012805D0002103A0FFF7C8
:103B8000C6FF012010BD09A1F8E7000053494752C4
:103B9000544D454D3A204F7574206F66206865611D
:103BA00070206D656D6F7279000000003A204865E5
:103BB0006170206D656D6F727920636F72727570C0
:103BC0007465640010B50C30AFF3008010BD10B503
:103BD000FCF746FF006810BD10B50446FCF740FF37
:103BE000046010BD2DE9FF4F1F464FF03C0987B020
:103BF0004FF00042DDE9141001F10108DDF858A092
:103C000002EA405003900020059083460546044692
:103C10000490B969461E08988847AAF1010A0290E3
:103C2000BAF1000F3BDD02982E2815D01021FEF7C7
:103C3000F9F900282EDB4FF0010B0599014317D04D
:103C4000B9F1000F0BDB4A46C117FDF70CF805432D
:103C50000C43A9F1040905E0012004900BE008B130
:103C600045F0010501200590049820B9361D02E0B9
:103C7000049800B1361FB969089808F1010888470F
:103C8000BBF1000FAAF1010A0290C9D00999C1F84D
:103C90000080C5E70298702808D0502806D0F9693E
:103CA00008988847BBF1000F14D04FE00020029025
:103CB0000120BBF1000F049009D0B969089808F100
:103CC00001088847AAF10109B9F1000F07DCF96979
:103CD000089888476FF001000BB0BDE8F08F2B28E3
:103CE00004D02D280CD14FF0FF300490B96908980A
:103CF00008F101088847A9F10109B9F1000FE6DDD3
:103D0000411CE4D00A21FEF78DF90028DFDB02997F
:103D100008F1010801EB810100EB41000290B96953
:103D2000089888470A21FEF77DF9099AA9F1010947
:103D3000B9F1000FC2F8008001DD0028E7DAF96967
:103D4000089888470499029800FB016655EA040028
:103D500004D004F04041090002D006E0039898E046
:103D6000A40044EA9574AD00B61E04F000410800BA
:103D700002D16D196441761E159810F0240F03D0FE
:103D80004FF00B095C4803E04FF028096FF07D000D
:103D90008246564507DAAAEB06018944B9F1410F7C
:103DA00001DD4FF0410901200021A9F10102FCF7DA
:103DB0005AFF024628400B462140084301D001210A
:103DC00000E00021501E029143F1FF3128402140C4
:103DD000084301D0012000E000200299834651EA07
:103DE0000B014FD0002108464FF00000039900F46A
:103DF000400039B100EB80004FF4400100EBD0707F
:103E000001EA60008015012802DD4FF0FF3000E07C
:103E100013D0401C36D0029860B3BBF1000F0CD118
:103E20004A4601200021FCF71EFF2840214008439C
:103E300001D0012000E00020E0B101204A4600212D
:103E4000FCF711FF034640190A4661412D1A8C41C7
:103E500011D3B9F1400F09DD159810F0240F02D0ED
:103E6000AAF1340603E0AAF1170600E0761C00254B
:103E70004FF0004406E05B1E42F1FF3220EA0305EA
:103E800021EA0204CAF10100B04206DA1B49039894
:103E900008430190002000900EE0039AC4F3D32160
:103EA000E80A0A43164940EA44500A433146CDE93C
:103EB0000002684603F0F4FD159810F0240F0BD0B3
:103EC0001598C00715D13868DDE90012031D3B6065
:103ED0000068C0E900120CE002A8694603F03AFD50
:103EE0001598C00705D13868029A011D396000682D
:103EF00002604046F0E6000002FCFFFF0000F07F99
:103F00000000F03F2DE9FF4F92461D4685B04FF06F
:103F10000041DDE9124BDDE914727F1E01EA4B50CE
:103F2000414940F0FF4940EA0108002122F0200009
:103F30004928049102D04E2828D04CE03BA001260D
:103F400007C88DE80700A9690698641C88477F1E8A
:103F5000014606D41DF8060018B121F02001814267
:103F60000BD0E96906988847032E34D0082E32D04A
:103F70006FF0010009B0BDE8F08F761C032E01D070
:103F8000082EE0D1601CCAF80000DCE7A969069899
:103F9000641C88477F1E2AD420F02000412826D1A7
:103FA000A9690698641C88477F1E20D420F0200051
:103FB0004E281CD1A9690698641C88477F1E48F4C6
:103FC000002849F48009CAF8004001D4282806D006
:103FD000E969069888475FEACB7012D022E0A969A8
:103FE0000698641C88477F1E01D4002803DAE9691B
:103FF00006988847BCE72928F1D1641CCAF800401C
:10400000E9E71BF0240F07D028680499031D2B60F3
:104010000068C0E9001805E02868021D2A600068F1
:10402000C0F800902046A5E70000F07F494E4649C1
:104030004E495459000000005FEA400C08BF91F05F
:10404000000F4FEA8C234FEAC12243EA51514FEA55
:104050001C5018BF00F5F0404FEA300018BF41F087
:1040600000415FEA6C5C00F02980BCF1FF3F08BFB3
:1040700040F080407047130C06BF12044FF0100C44
:104080004FF0000C130E04BF12020CF1080C130FBA
:1040900004BF12010CF1040C930F04BF92000CF149
:1040A000020CD30F04BF52000CF1010C11464FF06B
:1040B0000002A0F11F00A0EB0C00704711F0004FB0
:1040C00008BF704731F000413FF4D5AF0B0C06BF7D
:1040D00009044FF0100C4FF0000C0B0E04BF090246
:1040E0000CF1080C0B0F04BF09010CF1040C8B0F31
:1040F00004BF89000CF1020CCB0F04BF49000CF186
:10410000010CCCF12003A0EB0C0022FA03F302FA1D
:104110000CF241EA030100F10100704720F07F4CEE
:1041200080EA030023F07F47ACEB070303F57C53E1
:1041300000F0004003F1FF032DE980494FEA154BE1
:1041400009B44FEA144325EA0B4E24EA03480FF260
:10415000042606EB132749083E785FEA320203FB88
:104160000667C7F5000707FB06F64FEA54374FEA24
:10417000D64606F1020607FB066CCCF1005C4FEA5E
:104180001C472CEA074C07FB06F40CFB06F504EB76
:1041900015464FEA961634BF00204FF000404FEA14
:1041A000D13706FB07FC4FEA1C4C0CFB0BF7D21B6C
:1041B00003FB0CF761EB07010CFB0EF7B0EB0740BC
:1041C00072EB17420CFB08F734BFA2EB0742B2EBCD
:1041D000074261EB17414FEA0C444FEA910706FB97
:1041E00007FC4FEA1C4C0CFB0BF7B0EBC74072EB23
:1041F000573203FB0CF734BFA2EBC742B2EBC74206
:1042000061EB57310CFB0EF7B0EBC70072EB577246
:104210000CFB08F734BFA2EBC702B2EBC70261EB9D
:104220005771039F4FEA816141EA921104EBCC047C
:104230004FEAD1374FEA826206FB07FC42EA90124E
:104240004FEA80604FEA1C4C0CFB0BF7D21B03FBC0
:104250000CF761EB07010CFB0EF7B0EB074072EBBC
:1042600017420CFB08F734BFA2EB0742B2EB074240
:1042700061EB17414FEA8C554FEA910704EB9C2400
:1042800006FB07FC4FEA1C4C0CFB0BF7B0EBC740DE
:1042900072EB573203FB0CF734BFA2EBC742B2EB11
:1042A000C74261EB57310CFB0EF7B0EBC70072EB66
:1042B00057720CFB08F734BFA2EBC702B2EBC70280
:1042C00061EB577115EB4C254FEA816141EA921180
:1042D0004FEA82624FEAD13742EA901206FB07FCAE
:1042E00044F100044FEA80604FEA1C4C0CFB0BF7D2
:1042F000D21B03FB0CF761EB07010CFB0EF7B0EBD5
:10430000074072EB17420CFB08F734BFA2EB0742E1
:10431000B2EB074261EB174115EB1C154FEA8131F7
:1043200041EA92414FEA823242EA90424FEA8030BB
:104330004FEA0C7644F1000448EA03434EEA0B4886
:104340004FF0000EB2EB080C71EB030724BF62467E
:1043500039464EEB0E0E4FF0000B0018524149410A
:104360004BEB0B0BB2EB080C71EB03077BF1000B73
:1043700024BF624639464EEB0E0E4FF0000B00187C
:10438000524149414BEB0B0BB2EB080C71EB0307AD
:104390007BF1000B24BF624639464EEB0E0E51EA0C
:1043A000020718BF46F0010616EB0E7655F1000223
:1043B00054F1000103D5BDE88901BDE80088BDE8DE
:1043C0008901BDE80048B619524141EB0101A3F152
:1043D0000103704780807F7E7D7C7B7A7978777659
:1043E00076757473727171706F6E6E6D6C6C6B6AD2
:1043F0006A69686867666665646463636261616070
:10440000605F5F5E5E5D5D5C5C5B5B5A5A595958EC
:104410005857575656555555545453535252525156
:10442000515050504F4F4F4E4E4D4D4D4C4C4C4BAC
:104430004B4B4A4A4A4949494848484747474746F3
:10444000464645454544444444434343434242422F
:104450004241414146EA0646A3F570534FEA1646EB
:1044600046EA42564FEAD22242EA415210B54FEA9A
:10447000D121A3F1010300F02FF820F0004000F15A
:10448000020C00F0004701EB00501146BCF5006F34
:1044900040EA070000D210BDBAF1000F0AD01CB5E7
:1044A00003B44FF004004FF004014FF000000FBCC4
:1044B000BDE810404FF00001BBF1010FB9BF044847
:1044C0004FF0FF310348002140EA070010BD00BF54
:1044D000FFFFEF7F0000F07F002B9C4630D4770079
:1044E0002BD01CB54FEA370703B44FF010004FF044
:1044F0001001BAF1000F06D0BCF1000FDCBF40F094
:10450000080040F008014FF000000FBCBDE810406B
:104510000BF1010BBBF1010F08BF5FEA170722BFC8
:1045200012F1010211F101014FF0004143F10003CA
:1045300000F0004043EA00007047F9D35708D0E785
:1045400046EA064613F1400F4FEA16461FDD13F107
:10455000200FDFBF16430A46002120335B42BED046
:10456000C3F1200746EA064602FA07F74FEA164665
:1045700046EA0706C3F1200722FA03F201FA07F719
:1045800021FA03F14FF0000342EA0702A7E746EAE7
:10459000020646EA06464FEA164646EA0106BCBF50
:1045A00046EA0646360C4FF000034FF000024FF08B
:1045B000000194E72DE9804C9A46934670B491E847
:1045C000380007C831EA400C48BF34EA430C03D531
:1045D000FFF7A4FDFFF780FFF0BCBDE8008C2DE9DC
:1045E000804C9A46934670B491E8380007C831EA87
:1045F000400C48BF34EA430C03D5FFF78FFDFFF7AB
:1046000029FFF0BCBDE8008C2DE9804C9A4693460A
:1046100070B491E8380007C810F0804F08BF13F05D
:10462000804F03D100F01AF8FFF756FFF0BCBDE849
:10463000008C2DE9804C9A46934670B491E838007E
:1046400007C810F0804F08BF13F0804F03D100F06F
:1046500005F8FFF7FFFEF0BCBDE8008C20F07F47B7
:1046600080EA030023F07F4C07EB0C03A3F57C5397
:1046700000F00040A3F1FE0392F0000F00F0B380C1
:1046800095F0000F00F077802DE901494FEA1140C5
:104690004FEA144621EA004800FB06FC24EA0647DC
:1046A00008FB06F607FB08F800FB07F718EB0648BF
:1046B0004CEB164C4FEA124B18EB07484FEA1546E5
:1046C0004CEB174022EA0B4E0BFB06FC25EA064793
:1046D0000EFB06F607FB0EFE0BFB07F71EEB064E66
:1046E0004CEB164C4FF000061EEB074E4CEB174BF5
:1046F00018EB0B0840F1000018EB0E0B58EB00080C
:1047000040F100008F1A4FF000013CBFC943661B07
:1047100014BFB5EB040C00213CBFC943F61B4FEAA4
:1047200017444EEA8E0E27EA04454FEA1C4704FB65
:1047300007622CEA074C05FB07F70CFB05F604FBA8
:104740000CFC16EB074642EB174216EB0C4642EB0D
:104750001C421BEB060658EB0202414146EA9E064C
:1047600001D5BDE80189B619524141EB0101A3F120
:104770000103BDE801894FEA14454FEA114724EAD5
:10478000054621EA074C05FB07F406FB07F70CFB7F
:1047900006F105FB0CFC11EB074144EB17444FEA13
:1047A000124711EB0C4144EB1C4422EA074C05FB79
:1047B00007F206FB07F70CFB06F605FB0CFC16EBF5
:1047C000074642EB174216EB0C4642EB1C456A18B3
:1047D00054F1000148BF7047B619524141EB010145
:1047E000A3F10103704795F0000F37D04FEA114253
:1047F0004FEA144721EA024624EA074C02FB07F17C
:1048000006FB07F70CFB06F402FB0CFC14EB074459
:1048100041EB17414FEA154714EB0C4441EB1C41A7
:1048200025EA074C02FB07F506FB07F70CFB06F62B
:1048300002FB0CFC16EB074645EB174516EB0C4646
:1048400045EB1C42121951F1000148BF7047B619DF
:10485000524141EB0101A3F1010370474FEA1445B6
:104860004FEA114724EA054621EA074C05FB07F108
:1048700006FB07F70CFB06F24FF0000605FB0CFCED
:1048800012EB074241EB174112EB0C4251EB1C417A
:1048900048BF7047921841EB0101A3F10103704733
:1048A00010B504F0C8F904F0EDF810BD10B50446D9
:1048B0000021204607F0AEFB10BD704770477047DF
:1048C0007047704770477047704770477047704730
:1048D0007047704770477047704770477047704720
:1048E0007047704770477047704770477047704710
:1048F0007047704770477047704770477047704700
:1049000070477047704770477047704770477047EF
:10491000704770477047704710B505F08BF9044633
:10492000204607F047F810BD704770477047704742
:104930007047704770477047704730B58DB0044678
:104940000D46302101A8FCF7E2FE302301AA2946DA
:10495000204600F073FE0DB030BD2DE9F041054654
:1049600005F12800FBF795FE074617B90020BDE8C2
:10497000F081EC6A07E00121A01CFBF715FE06465A
:1049800006B902E0A468002CF5D100BF2046EEE78E
:104990002DE9F04105460C46286BA0B12E6B00278F
:1049A00001E0374676681EB1F078E1788842F8DB9E
:1049B0006660A7600EB1B46000E0EC620FB17C608D
:1049C00006E02C6304E000206060A060EC622C63D1
:1049D00005F12800FBF729FEBDE8F0814A681AB10D
:1049E000D1E901329A6001E08A68C2628A681AB12C
:1049F000D1E901235A6001E04A68026370474FF031
:104A0000E0200069002070470948007830B100209C
:104A1000074908704FF08060064908604FF0E020B9
:104A2000006940F001004FF0E0210861002070476C
:104A30008C09001004ED00E04FF0FF3070470000DB
:104A400010B502460B4612B94FF0FF3010BD0D48AD
:104A50000068B0FBF2F0411EB1F1807F02D34FF04D
:104A6000FF30F3E7FF240848C47206204FF0E0242B
:104A70002061204641610020A061044C207000BFED
:104A8000E4E70000B009001018ED00E08C09001008
:104A90002020324908603248D0F8A00100F0200000
:104AA00030B100BF2D48006800F040000028F9D068
:104AB00002202A499C39086000202949C1F8A80130
:104AC00026490C31086001202449943908600B20E4
:104AD000234984310860AA2021498C31086055207F
:104AE000086001201E4980310860AA201C498C31D1
:104AF000086055201A49C1F88C0000BF184888305A
:104B0000006800F080600028F8D00320144980314C
:104B10000860AA201249C1F88C00552010498C3138
:104B2000086000BF0E488830006800F04070002820
:104B3000F8D005200949983908600A480849C1F8A1
:104B4000C4000020C1F8C8010846006820F4704085
:104B500043F23A010843024908607047A0C10F4080
:104B600000C00F40DE8728042DE9F04107460E46BD
:104B7000154605F0020080B905F0010030B131465C
:104B800007F12800FBF781FE044615E0314607F1E6
:104B90002800FBF78DFE04460EE0BC6A05F001001C
:104BA00018B104EA0600B04205D105F0010018B9B9
:104BB00004EA060000B900242046BDE8F0810000A8
:104BC00030B5024600230D4C606C03E00469091BFC
:104BD0000346C06810B104698C42F7D91161936033
:104BE000D06020B104691569641B046182600BB157
:104BF000DA6001E0014C626430BD0000140A00106C
:104C0000C16811B1D0E902129160024AC1685164D1
:104C100070470000140A001010B50446E4B10F48B4
:104C200000F0BCF80E48806898B10E4800F0B6F865
:104C30000B49886800F0B2F80948C06830B10A48EA
:104C400000F0ACF80649C86800F0A8F8034800F086
:104C5000A5F8204600F0A2F810BD000051C90000E0
:104C6000681F0010E4CA0000EECA00002DE9F05FE2
:104C700004460D4616461F46DDE90D9BDDF828A0CB
:104C8000DDF830801A48D0E90C1000235940584014
:104C9000014306D11648D0E90E105940584001434F
:104CA00001D0BDE8F09F84EA060085EA07010843C9
:104CB0001BD04046494600F07BF90E4800F06EF8E4
:104CC0005A462046294600F0BDF80B4800F066F829
:104CD0005A463046394600F0B5F85046FFF79CFF7B
:104CE0000A2007F063F807F06FF800BFD9E700006B
:104CF000681F001054C900005FC9000070B5044669
:104D000015461E462149D1E90C0100225040514070
:104D1000084307D11D48D0E90E10002359405840E0
:104D2000014300D070BD19492A463346086800F097
:104D300023F900F065F814B33A2007F037F8134868
:104D4000806898B1124800F029F81049886800F08E
:104D500025F80E48C06830B10E4800F01FF80B4926
:104D6000C86800F01BF80C4800F018F820782028DC
:104D700002D0202007F01AF8204600F00FF80A2091
:104D800007F014F807F020F800BFCBE7681F001009
:104D9000E4CA0000EECA000051C9000070B5054623
:104DA0002C465CB327E020787E2806DC207820287B
:104DB00003DB207806F0FAFF1CE020780D2806D1EE
:104DC0005C2006F0F3FF722006F0F0FF12E020787E
:104DD0000A2806D15C2006F0E9FF6E2006F0E6FF07
:104DE00008E05C2006F0E2FF23780222184600214A
:104DF00000F052F8641C20780028D4D170BD000067
:104E000010B50248FFF7CAFF10BD000040C90000FE
:104E10002DE9F04104460D4626462F46002108465E
:104E2000611A75EB000006DA2D2006F0BFFF0020A6
:104E3000664260EB05073046394600F05EF8BDE893
:104E4000F081000070B505460E46144604F01000CF
:104E5000102804D128463146FFF7DAFF18E004F0A5
:104E6000200020280ED10F202040401E094901EBD0
:104E7000C00103C900EA050201EA0601104600F07C
:104E80003CF805E02007C20E2846314600F004F841
:104E900070BD000000CB00002DE9F05F074688469A
:104EA0009246D346302006F081FF782006F07EFF40
:104EB0001EE0ABF10100C0B2834682003E46C1460F
:104EC00030464946FBF7E2FE0F2300EA03040025C3
:104ED0000020D4F10901A84105D330216118C8B2DE
:104EE00006F064FF04E037216118C8B206F05EFFE7
:104EF000BBF1000FDDDCBDE8F09F2DE9F047064671
:104F00000F460124002509E00A2200202146A1FBCA
:104F100002C805FB028204FB0025644622462B469C
:104F200030463946FBF728FE09230022181A8A4129
:104F3000EAD300BF22462B4630463946FBF71CFE1B
:104F400080460A220023FBF717FE3020101800F0DD
:104F5000FF0A504606F02AFF0A220023204629466F
:104F6000FBF70AFE04460D46002184EA0100694071
:104F70000843DFD1BDE8F08770B5064614461D46EC
:104F80003046FFF70BFF3A2006F010FF2046294677
:104F9000FFF73EFF3A2006F009FF04494868FFF793
:104FA000FDFE3A2006F002FF70BD0000681F0010F1
:104FB00070B504460D46064922462B460868FFF7A1
:104FC000DBFF0448FFF7EAFE3A2006F0EFFE70BD73
:104FD000681F001040C900000FB470B592B00546BC
:104FE000402102A8FCF793FB28683F2202A98368AE
:104FF000284698470646002E04DA9E22002311A078
:10500000FFF77CFE002E02DA16A003F047F918A87D
:10501000019002A8019A1799FCF74EF80446002067
:105020000190002C04DAA322002306A0FFF766FEFD
:10503000002C02DA0BA003F031F9204612B070BC4C
:105040005DF814FB2045787072657373696F6E208C
:105050004576616C756174656420546F2046414CDF
:1050600053450000417373657274206661696C6515
:1050700064000000F0B585B006460F46144630685F
:1050800022463946C36830469847054615F11C0F3D
:1050900002D1012005B0F0BD9420742104900020BD
:1050A000CDE902102A46EB17009020460021FFF7B9
:1050B000DDFDEA1784EA0501114302D002A003F0E6
:1050C000EDF80020E6E70000417373657274206616
:1050D00061696C65640000000FB430B591B005469D
:1050E00016A8009001A8009A1599FBF7FDFD04464B
:1050F00000200090002C01DB402C04DDB6220023B0
:105100000BA0FFF7FBFD002C01DB402C02DD10A003
:1051100003F0C4F8224601A92846FFF7ABFF28B1E7
:105120004FF0FF3011B030BC5DF814FB2046F9E7BA
:105130002045787072657373696F6E204576616C77
:10514000756174656420546F2046414C53450000DE
:10515000417373657274206661696C656400000058
:1051600010B50848006800B110BD074A511E074835
:1051700005F06CF94FF41651044804F071FF00BFBC
:10518000F2E70000A409001003C00920A8090010DC
:1051900070B504460D462946204600F0ABFF014994
:1051A000086070BD580900100246002106E005485D
:1051B000405C904201D101207047491C1929F6D367
:1051C0000020F9E748C7000000B587B001A803F048
:1051D00093FD05A0029900F051F807A0049900F092
:1051E0004DF807B000BD00006D61785F68656170C3
:1051F0005F757361676500007265736572766564DB
:105200005F6865617000000010B54FF0FF31024823
:10521000006803F0B3FE10BD6C0900102DE9F041E9
:1052200004460D4616461F4624B300F0EFFA20460A
:1052300000F0F2F9104806F06FFE80463B2101F0C5
:10524000E2FD284600F0E8F90B4806F065FE8046CE
:105250003B2101F0D8FD304600F038F9064806F051
:105260005BFE80463B2101F0CEFD384600F02EF972
:1052700000F0E8FABDE8F081E00A001070B50446DD
:105280000D4684B100F0C2FA204600F0C5F9064888
:1052900006F042FE06463B2101F0B5FD284600F02F
:1052A00015F900F0CFFA70BDE00A00102DE9F041C9
:1052B00004460D461646D4B100F0A8FA204600F088
:1052C000ABF90C4806F028FE07463B2101F09BFD98
:1052D000284600F0FBF8074806F01EFE07463B2173
:1052E00001F091FD304600F0F1F800F0ABFABDE8B6
:1052F000F0810000E00A001010B50248006803F0D9
:10530000AFFE10BD6C0900102DE9F04196B00746C4
:1053100000240025334903C9CDE91401002630E0FB
:1053200011A801F0C1FA14A850F82620002339462C
:1053300011A801F0B3F900BB641C402101A8FCF7DF
:10534000E6F9294801A9026811A801F0C1F98046CF
:1053500025480068804503D011A801F0B5FA12E095
:1053600021482249026801A8FCF79AF818B111A84F
:1053700001F0AAFA07E06D1C00BF11A801F0A4FA21
:10538000761C022ECCDB94204FF48A71049000200E
:10539000CDE902102246E317009001200021FFF71B
:1053A00065FCE21701206040104302D010A002F01B
:1053B00075FF942040F2151104900020CDE90210F1
:1053C0002A46EB17009001200021FFF74FFCEA1757
:1053D00001216940114302D005A002F05FFF16B021
:1053E000BDE8F08140C70000100900103AC6000077
:1053F000417373657274206661696C6564000000B6
:1054000010B502F0B1FE05F001FB00BF05F02EFB68
:1054100000BF05F039FB02F003FF10BD30B589B0C5
:10542000054606A801F040FA40F20123204A294629
:1054300006A801F033F904469420D22104900020FC
:10544000CDE902102246E31701460090FFF70EFC5B
:1054500000200146604081EAE471084302D015A0B3
:1054600002F01CFF17481849026806A801F0C6F9A7
:1054700004469420D62104900020CDE90210224653
:10548000E31700900F480068C117FFF7EFFB0D48C6
:105490000068C117604081EAE471084302D005A0AA
:1054A00002F0FCFE06A801F00FFA09B030BD0000C2
:1054B00010C60000417373657274206661696C6583
:1054C00064000000100900103AC600007FB50546D0
:1054D00000242A4609496846FBF73EFC08E00848D4
:1054E00006F01AFD06461DF8041001F08CFC641C41
:1054F0001DF804000028F2D17FBD00006CCF000031
:10550000E00A001070B504460D46FBF7A9FA6142A7
:1055100001600020024941F82500401E70BD0000D6
:10552000DC1C0010F0B58FB00546286805AA21499B
:1055300083692846984704460CB91E4800E01E4877
:1055400006460CB91C4800E01A480746A01C28B1C2
:1055500024B1E622002319A0FFF7D0FBA01C18B14C
:1055600014B11EA002F09AFE28683A4631464369FB
:1055700028469847044614F11C0F02D101200FB0B1
:10558000F0BD9420ED2104900020CDE902102246C8
:10559000E31701460090FFF769FB002001466040D9
:1055A00081EAE471084302D00CA002F077FE0020EB
:1055B000E5E7000010C6000025C600002045787011
:1055C00072657373696F6E204576616C7561746581
:1055D0006420546F2046414C53450000417373656D
:1055E0007274206661696C656400000038B5044619
:1055F000A078012802D0A07802280BD12146684665
:1056000001F0A7FF054601F07DFD002000F0BCF988
:1056100000BFFEE738BD000070B5044607E006484D
:1056200006F07AFC0546217801F0EDFB641C207839
:105630000028F4D170BD0000E00A00102DE9FC4103
:1056400006460C4615461F4600F094F800200090D0
:10565000019013E03B4608222946684603F018F8FB
:105660000CA0FFF7D9FF144801686846FCF776F8EC
:1056700020B92946684603F035F800E0EAE700BFA4
:1056800000F0B6F8304600F0A9F8204600F0D0F857
:10569000BDE8FC816D6265646D6265646D62656420
:1056A0006D6265646D6265646D6265646D6265649A
:1056B0006D6265640D0A000028090010F0B585B020
:1056C0000746002400261FE002A800F0C5FF1C4882
:1056D00050F82620394602A800F095FF0546A81C80
:1056E00030B12DB140F2BF12002316A0FFF706FB28
:1056F000A81C18B115B11BA002F0D0FD05B9641C9F
:1057000002A800F0B9FF761C022EDDD394204FF4DE
:10571000E27104900020CDE9021022460346009079
:1057200001200021FFF7A2FA00220120604082EA56
:105730000201084302D00BA002F0B0FD05B0F0BD9D
:10574000140900102045787072657373696F6E20BC
:105750004576616C756174656420546F2046414CD8
:1057600053450000417373657274206661696C650E
:10577000640000007047000030B585B00546286819
:1057800040F2FF120E49C369284698470446942008
:105790004FF4C87104900020CDE902102246E317AF
:1057A00001460090FFF762FA00200146604081EA5E
:1057B000E471084302D003A002F070FD05B030BDD3
:1057C000B0C60000417373657274206661696C65D0
:1057D0006400000010B5FFF7F7FC10BD10B50446DB
:1057E000214602480068FFF749FD10BD2C09001052
:1057F00010B503A10448006802F074FF10BD00005A
:10580000312E332E300000003409001010B5074847
:1058100006F082FB04467B2101F0F5FA034806F00E
:105820007BFB04467B2101F0EEFA10BDE00A00107C
:1058300010B5044621460248006802F053FF10BD2F
:105840003009001010B50E4806F066FB04467D21B5
:1058500001F0D9FA0A4806F05FFB04467D2101F009
:10586000D2FA074806F058FB04460D2101F0CBFAA6
:10587000034806F051FB04460A2101F0C4FA10BDAA
:10588000E00A0010F0B58FB00546286805AA224945
:1058900083692846984704460CB91F4800E01F4812
:1058A00006460CB91D4800E01B480746A01C30B155
:1058B0002CB14FF4D072002319A0FFF71FFAA01CDF
:1058C00018B114B11EA002F0E9FC28683A4631462E
:1058D000436928469847044614F11C0F02D1012061
:1058E0000FB0F0BD942040F2A71104900020CDE944
:1058F00002102246E31701460090FFF7B7F9002097
:105900000146604081EAE471084302D00CA002F035
:10591000C5FC0020E4E70000B0C60000B6C60000E9
:105920002045787072657373696F6E204576616C7F
:10593000756174656420546F2046414C53450000E6
:10594000417373657274206661696C656400000060
:1059500038B50446A078012805D0A078022802D0E6
:105960002088102807D12146684601F0F2FD05463F
:1059700001F0C8FB00BF2088102804D1002000F0EF
:1059800003F800BFFEE738BD10B50446204600F01E
:1059900067F910BD70B58CB0064608A800F084FF0A
:1059A00000231F4A314608A800F078FE05469420DF
:1059B0004FF4BE7104900020CDE902102A46EB1787
:1059C00001460090FFF752F900200146684081EA45
:1059D000E571084302D013A002F060FC06AA154945
:1059E00008A8FFF7F9FA044694204FF4C071049018
:1059F0000020CDE902102246E3170090012000218B
:105A0000FFF734F9E21701216140114302D005A0EC
:105A100002F044FC08A800F057FF0CB070BD000075
:105A200063C60000417373657274206661696C65BA
:105A30006400000097C60000F0B599B0064616A8AD
:105A400000F032FF40F201232B4A314616A800F045
:105A500025FE044694204FF4957104900020CDE972
:105A600002102246E31701460090FFF7FFF80020DE
:105A70000146604081EAE471084302D01FA002F0B1
:105A80000DFC0027402106A8FBF741FE3A461F49BE
:105A900006A8FBF761F90546002D05DC4FF4987266
:105AA00000231BA0FFF72AF9002D02DC13A002F04F
:105AB000F5FB2A4606A916A800F0A0FE044694208D
:105AC00004904FF49A700021CDE902012246E317B9
:105AD00028460091E917FFF7C9F8E81785EA04019D
:105AE00080EAE470014302D004A002F0D7FB16A8BC
:105AF00000F0EAFE19B0F0BD63C6000041737365A3
:105B00007274206661696C656400000097C60000CD
:105B10002045787072657373696F6E204576616C8D
:105B2000756174656420546F2046414C53450000F4
:105B3000F0B58BB0074608A800F0B6FE0023414A36
:105B4000394608A800F0AAFD0446942040F22A2114
:105B500004900020CDE902102246E3170146009090
:105B6000FFF784F800210846614080EAE4700143B1
:105B700002D035A002F092FB002623E07102002241
:105B800008A800F0D3FD05A800EB860232A108A802
:105B9000FFF722FA0546942040F2312104900020BC
:105BA000CDE902102A46EB17009001200021FFF7F3
:105BB0005DF8EA1701216940114302D022A002F0EA
:105BC0006DFB761C032ED9DB942040F23521049026
:105BD0000020CDE9021000900598451C069E324633
:105BE000002328461946FFF741F80598401C00227B
:105BF000069948405240104302D013A002F04EFBD9
:105C0000942040F2362104900020CDE9021000904B
:105C10000698451C079E3246002328461946FFF782
:105C200025F80698401C002207994840524010432E
:105C300002D005A002F032FB08A800F045FE0BB030
:105C4000F0BD0000BCC6000041737365727420662D
:105C500061696C6564000000256C750A0000000035
:105C600070B5044614B10948006801E008480068AE
:105C70000546FFF7AFFD29460648006802F032FDF1
:105C8000002105480068FFF7F9FA70BD38090010D7
:105C90003C09001020090010240900102DE9F041F2
:105CA00088B0804605A800F0FFFD40F201232C4A91
:105CB000414605A800F0F2FC054694204FF4EC7133
